{
  "contractName": "LauchpadDeal",
  "abi": [
    {
      "inputs": [],
      "stateMutability": "nonpayable",
      "type": "constructor"
    },
    {
      "anonymous": false,
      "inputs": [
        {
          "indexed": true,
          "internalType": "address",
          "name": "previousOwner",
          "type": "address"
        },
        {
          "indexed": true,
          "internalType": "address",
          "name": "newOwner",
          "type": "address"
        }
      ],
      "name": "OwnershipTransferred",
      "type": "event"
    },
    {
      "anonymous": false,
      "inputs": [
        {
          "indexed": false,
          "internalType": "address",
          "name": "_investor",
          "type": "address"
        },
        {
          "indexed": false,
          "internalType": "uint256",
          "name": "_amount",
          "type": "uint256"
        }
      ],
      "name": "getAnInvestor",
      "type": "event"
    },
    {
      "anonymous": false,
      "inputs": [
        {
          "indexed": false,
          "internalType": "address",
          "name": "_owner",
          "type": "address"
        },
        {
          "indexed": false,
          "internalType": "address",
          "name": "_from",
          "type": "address"
        },
        {
          "indexed": false,
          "internalType": "uint256",
          "name": "_amount",
          "type": "uint256"
        }
      ],
      "name": "ownerReceivedFunds",
      "type": "event"
    },
    {
      "anonymous": false,
      "inputs": [
        {
          "indexed": false,
          "internalType": "address",
          "name": "_user",
          "type": "address"
        },
        {
          "indexed": false,
          "internalType": "uint256",
          "name": "_amount",
          "type": "uint256"
        }
      ],
      "name": "userPaid",
      "type": "event"
    },
    {
      "inputs": [
        {
          "internalType": "uint256",
          "name": "",
          "type": "uint256"
        }
      ],
      "name": "investors",
      "outputs": [
        {
          "internalType": "address",
          "name": "",
          "type": "address"
        }
      ],
      "stateMutability": "view",
      "type": "function"
    },
    {
      "inputs": [],
      "name": "owner",
      "outputs": [
        {
          "internalType": "address",
          "name": "",
          "type": "address"
        }
      ],
      "stateMutability": "view",
      "type": "function"
    },
    {
      "inputs": [],
      "name": "renounceOwnership",
      "outputs": [],
      "stateMutability": "nonpayable",
      "type": "function"
    },
    {
      "inputs": [
        {
          "internalType": "address",
          "name": "",
          "type": "address"
        }
      ],
      "name": "tokenPriceFeedMapping",
      "outputs": [
        {
          "internalType": "address",
          "name": "",
          "type": "address"
        }
      ],
      "stateMutability": "view",
      "type": "function"
    },
    {
      "inputs": [
        {
          "internalType": "address",
          "name": "newOwner",
          "type": "address"
        }
      ],
      "name": "transferOwnership",
      "outputs": [],
      "stateMutability": "nonpayable",
      "type": "function"
    },
    {
      "inputs": [
        {
          "internalType": "address",
          "name": "_token",
          "type": "address"
        },
        {
          "internalType": "address",
          "name": "_priceFeed",
          "type": "address"
        }
      ],
      "name": "setPriceFeedContract",
      "outputs": [],
      "stateMutability": "nonpayable",
      "type": "function"
    },
    {
      "inputs": [
        {
          "internalType": "address",
          "name": "_token",
          "type": "address"
        }
      ],
      "name": "getTokenValue",
      "outputs": [
        {
          "internalType": "uint256",
          "name": "",
          "type": "uint256"
        },
        {
          "internalType": "uint256",
          "name": "",
          "type": "uint256"
        }
      ],
      "stateMutability": "view",
      "type": "function"
    },
    {
      "inputs": [
        {
          "internalType": "address",
          "name": "_user",
          "type": "address"
        }
      ],
      "name": "getUserPaymentTokenValue",
      "outputs": [
        {
          "internalType": "uint256",
          "name": "",
          "type": "uint256"
        }
      ],
      "stateMutability": "view",
      "type": "function"
    },
    {
      "inputs": [
        {
          "internalType": "uint256",
          "name": "_amount",
          "type": "uint256"
        }
      ],
      "name": "payForDeal",
      "outputs": [],
      "stateMutability": "payable",
      "type": "function"
    },
    {
      "inputs": [],
      "name": "getInvestors",
      "outputs": [],
      "stateMutability": "nonpayable",
      "type": "function"
    },
    {
      "inputs": [],
      "name": "getCurrentPool",
      "outputs": [
        {
          "internalType": "uint256",
          "name": "",
          "type": "uint256"
        }
      ],
      "stateMutability": "view",
      "type": "function"
    }
  ],
  "bytecode": "0x608060405273110a13fc3efe6a245b50102d2d79b3e76125ae83600560006101000a81548173ffffffffffffffffffffffffffffffffffffffff021916908373ffffffffffffffffffffffffffffffffffffffff160217905550600560009054906101000a900473ffffffffffffffffffffffffffffffffffffffff16600660006101000a81548173ffffffffffffffffffffffffffffffffffffffff021916908373ffffffffffffffffffffffffffffffffffffffff1602179055503480156100c857600080fd5b506100e56100da6100fb60201b60201c565b61010360201b60201c565b6103e860028190555060c86003819055506101c7565b600033905090565b60008060009054906101000a900473ffffffffffffffffffffffffffffffffffffffff169050816000806101000a81548173ffffffffffffffffffffffffffffffffffffffff021916908373ffffffffffffffffffffffffffffffffffffffff1602179055508173ffffffffffffffffffffffffffffffffffffffff168173ffffffffffffffffffffffffffffffffffffffff167f8be0079c531659141344cd1fd0a4f28419497f9722a3daafe3b4186f6b6457e060405160405180910390a35050565b611a0f806101d66000396000f3fe60806040526004361061009c5760003560e01c8063877dd39d11610064578063877dd39d146101795780638da5cb5b146101a2578063b2f5a54c146101cd578063f1c5d6c2146101e4578063f2fde38b14610222578063f7c5d2a41461024b5761009c565b80631a595f65146100a157806327927b3e146100cc5780633feb5f2b14610109578063715018a61461014657806375f75cf21461015d575b600080fd5b3480156100ad57600080fd5b506100b6610288565b6040516100c391906113e3565b60405180910390f35b3480156100d857600080fd5b506100f360048036038101906100ee9190611038565b610292565b60405161010091906112a8565b60405180910390f35b34801561011557600080fd5b50610130600480360381019061012b91906110c6565b6102c5565b60405161013d91906112a8565b60405180910390f35b34801561015257600080fd5b5061015b610304565b005b610177600480360381019061017291906110c6565b61038c565b005b34801561018557600080fd5b506101a0600480360381019061019b9190611061565b6108c1565b005b3480156101ae57600080fd5b506101b76109bf565b6040516101c491906112a8565b60405180910390f35b3480156101d957600080fd5b506101e26109e8565b005b3480156101f057600080fd5b5061020b60048036038101906102069190611038565b610b51565b6040516102199291906113fe565b60405180910390f35b34801561022e57600080fd5b5061024960048036038101906102449190611038565b610cd7565b005b34801561025757600080fd5b50610272600480360381019061026d9190611038565b610dcf565b60405161027f91906113e3565b60405180910390f35b6000600454905090565b60086020528060005260406000206000915054906101000a900473ffffffffffffffffffffffffffffffffffffffff1681565b600181815481106102d557600080fd5b906000526020600020016000915054906101000a900473ffffffffffffffffffffffffffffffffffffffff1681565b61030c610ed9565b73ffffffffffffffffffffffffffffffffffffffff1661032a6109bf565b73ffffffffffffffffffffffffffffffffffffffff1614610380576040517f08c379a0000000000000000000000000000000000000000000000000000000008152600401610377906113a3565b60405180910390fd5b61038a6000610ee1565b565b8060011515600760003373ffffffffffffffffffffffffffffffffffffffff1673ffffffffffffffffffffffffffffffffffffffff16815260200190815260200160002060010160009054906101000a900460ff1615151415610424576040517f08c379a000000000000000000000000000000000000000000000000000000000815260040161041b906113c3565b60405180910390fd5b600254816004546104359190611438565b1115610476576040517f08c379a000000000000000000000000000000000000000000000000000000000815260040161046d90611383565b60405180910390fd5b600a8110156104ba576040517f08c379a00000000000000000000000000000000000000000000000000000000081526004016104b190611343565b60405180910390fd5b6003548111156104ff576040517f08c379a00000000000000000000000000000000000000000000000000000000081526004016104f690611363565b60405180910390fd5b6000339050600660009054906101000a900473ffffffffffffffffffffffffffffffffffffffff1673ffffffffffffffffffffffffffffffffffffffff166323b872dd3361054b6109bf565b866040518463ffffffff1660e01b815260040161056a939291906112c3565b602060405180830381600087803b15801561058457600080fd5b505af1158015610598573d6000803e3d6000fd5b505050506040513d601f19601f820116820180604052508101906105bc919061109d565b507f46ae6afe7be0777fce4fbc0d5a9cf924488d045626085179258494ce93b4a7ed81846040516105ee9291906112fa565b60405180910390a16001819080600181540180825580915050600190039060005260206000200160009091909190916101000a81548173ffffffffffffffffffffffffffffffffffffffff021916908373ffffffffffffffffffffffffffffffffffffffff160217905550826004600082825461066b9190611438565b92505081905550600060018080549050610685919061168a565b90508360076000600184815481106106c6577f4e487b7100000000000000000000000000000000000000000000000000000000600052603260045260246000fd5b9060005260206000200160009054906101000a900473ffffffffffffffffffffffffffffffffffffffff1673ffffffffffffffffffffffffffffffffffffffff1673ffffffffffffffffffffffffffffffffffffffff1681526020019081526020016000206000018190555060016007600060018481548110610772577f4e487b7100000000000000000000000000000000000000000000000000000000600052603260045260246000fd5b9060005260206000200160009054906101000a900473ffffffffffffffffffffffffffffffffffffffff1673ffffffffffffffffffffffffffffffffffffffff1673ffffffffffffffffffffffffffffffffffffffff16815260200190815260200160002060010160006101000a81548160ff0219169083151502179055506003548414156108bb576001600760006001848154811061083b577f4e487b7100000000000000000000000000000000000000000000000000000000600052603260045260246000fd5b9060005260206000200160009054906101000a900473ffffffffffffffffffffffffffffffffffffffff1673ffffffffffffffffffffffffffffffffffffffff1673ffffffffffffffffffffffffffffffffffffffff16815260200190815260200160002060010160016101000a81548160ff0219169083151502179055505b50505050565b6108c9610ed9565b73ffffffffffffffffffffffffffffffffffffffff166108e76109bf565b73ffffffffffffffffffffffffffffffffffffffff161461093d576040517f08c379a0000000000000000000000000000000000000000000000000000000008152600401610934906113a3565b60405180910390fd5b80600860008473ffffffffffffffffffffffffffffffffffffffff1673ffffffffffffffffffffffffffffffffffffffff16815260200190815260200160002060006101000a81548173ffffffffffffffffffffffffffffffffffffffff021916908373ffffffffffffffffffffffffffffffffffffffff1602179055505050565b60008060009054906101000a900473ffffffffffffffffffffffffffffffffffffffff16905090565b60005b600180549050811015610b4e577f53d7b83e667fe28f3a9a68822455d9b9237ef1a9ed01f0bf13023909607af8e260018281548110610a53577f4e487b7100000000000000000000000000000000000000000000000000000000600052603260045260246000fd5b9060005260206000200160009054906101000a900473ffffffffffffffffffffffffffffffffffffffff166007600060018581548110610abc577f4e487b7100000000000000000000000000000000000000000000000000000000600052603260045260246000fd5b9060005260206000200160009054906101000a900473ffffffffffffffffffffffffffffffffffffffff1673ffffffffffffffffffffffffffffffffffffffff1673ffffffffffffffffffffffffffffffffffffffff16815260200190815260200160002060000154604051610b339291906112fa565b60405180910390a18080610b4690611733565b9150506109eb565b50565b6000806000600860008573ffffffffffffffffffffffffffffffffffffffff1673ffffffffffffffffffffffffffffffffffffffff16815260200190815260200160002060009054906101000a900473ffffffffffffffffffffffffffffffffffffffff169050600081905060008173ffffffffffffffffffffffffffffffffffffffff1663feaf968c6040518163ffffffff1660e01b815260040160a06040518083038186803b158015610c0557600080fd5b505afa158015610c19573d6000803e3d6000fd5b505050506040513d601f19601f82011682018060405250810190610c3d9190611118565b50505091505060008273ffffffffffffffffffffffffffffffffffffffff1663313ce5676040518163ffffffff1660e01b815260040160206040518083038186803b158015610c8b57600080fd5b505afa158015610c9f573d6000803e3d6000fd5b505050506040513d601f19601f82011682018060405250810190610cc3919061118f565b60ff16905081819550955050505050915091565b610cdf610ed9565b73ffffffffffffffffffffffffffffffffffffffff16610cfd6109bf565b73ffffffffffffffffffffffffffffffffffffffff1614610d53576040517f08c379a0000000000000000000000000000000000000000000000000000000008152600401610d4a906113a3565b60405180910390fd5b600073ffffffffffffffffffffffffffffffffffffffff168173ffffffffffffffffffffffffffffffffffffffff161415610dc3576040517f08c379a0000000000000000000000000000000000000000000000000000000008152600401610dba90611323565b60405180910390fd5b610dcc81610ee1565b50565b6000806000610dff600660009054906101000a900473ffffffffffffffffffffffffffffffffffffffff16610b51565b9150915080600a610e109190611512565b82600660009054906101000a900473ffffffffffffffffffffffffffffffffffffffff1673ffffffffffffffffffffffffffffffffffffffff166370a08231876040518263ffffffff1660e01b8152600401610e6c91906112a8565b60206040518083038186803b158015610e8457600080fd5b505afa158015610e98573d6000803e3d6000fd5b505050506040513d601f19601f82011682018060405250810190610ebc91906110ef565b610ec69190611630565b610ed0919061148e565b92505050919050565b600033905090565b60008060009054906101000a900473ffffffffffffffffffffffffffffffffffffffff169050816000806101000a81548173ffffffffffffffffffffffffffffffffffffffff021916908373ffffffffffffffffffffffffffffffffffffffff1602179055508173ffffffffffffffffffffffffffffffffffffffff168173ffffffffffffffffffffffffffffffffffffffff167f8be0079c531659141344cd1fd0a4f28419497f9722a3daafe3b4186f6b6457e060405160405180910390a35050565b600081359050610fb48161194f565b92915050565b600081519050610fc981611966565b92915050565b600081519050610fde8161197d565b92915050565b600081359050610ff381611994565b92915050565b60008151905061100881611994565b92915050565b60008151905061101d816119c2565b92915050565b600081519050611032816119ab565b92915050565b60006020828403121561104a57600080fd5b600061105884828501610fa5565b91505092915050565b6000806040838503121561107457600080fd5b600061108285828601610fa5565b925050602061109385828601610fa5565b9150509250929050565b6000602082840312156110af57600080fd5b60006110bd84828501610fba565b91505092915050565b6000602082840312156110d857600080fd5b60006110e684828501610fe4565b91505092915050565b60006020828403121561110157600080fd5b600061110f84828501610ff9565b91505092915050565b600080600080600060a0868803121561113057600080fd5b600061113e8882890161100e565b955050602061114f88828901610fcf565b945050604061116088828901610ff9565b935050606061117188828901610ff9565b92505060806111828882890161100e565b9150509295509295909350565b6000602082840312156111a157600080fd5b60006111af84828501611023565b91505092915050565b6111c1816116be565b82525050565b60006111d4602683611427565b91506111df826117e7565b604082019050919050565b60006111f7603183611427565b915061120282611836565b604082019050919050565b600061121a601983611427565b915061122582611885565b602082019050919050565b600061123d601a83611427565b9150611248826118ae565b602082019050919050565b6000611260602083611427565b915061126b826118d7565b602082019050919050565b6000611283602383611427565b915061128e82611900565b604082019050919050565b6112a281611706565b82525050565b60006020820190506112bd60008301846111b8565b92915050565b60006060820190506112d860008301866111b8565b6112e560208301856111b8565b6112f26040830184611299565b949350505050565b600060408201905061130f60008301856111b8565b61131c6020830184611299565b9392505050565b6000602082019050818103600083015261133c816111c7565b9050919050565b6000602082019050818103600083015261135c816111ea565b9050919050565b6000602082019050818103600083015261137c8161120d565b9050919050565b6000602082019050818103600083015261139c81611230565b9050919050565b600060208201905081810360008301526113bc81611253565b9050919050565b600060208201905081810360008301526113dc81611276565b9050919050565b60006020820190506113f86000830184611299565b92915050565b60006040820190506114136000830185611299565b6114206020830184611299565b9392505050565b600082825260208201905092915050565b600061144382611706565b915061144e83611706565b9250827fffffffffffffffffffffffffffffffffffffffffffffffffffffffffffffffff038211156114835761148261177c565b5b828201905092915050565b600061149982611706565b91506114a483611706565b9250826114b4576114b36117ab565b5b828204905092915050565b6000808291508390505b6001851115611509578086048111156114e5576114e461177c565b5b60018516156114f45780820291505b8081029050611502856117da565b94506114c9565b94509492505050565b600061151d82611706565b915061152883611706565b92506115557fffffffffffffffffffffffffffffffffffffffffffffffffffffffffffffffff848461155d565b905092915050565b60008261156d5760019050611629565b8161157b5760009050611629565b8160018114611591576002811461159b576115ca565b6001915050611629565b60ff8411156115ad576115ac61177c565b5b8360020a9150848211156115c4576115c361177c565b5b50611629565b5060208310610133831016604e8410600b84101617156115ff5782820a9050838111156115fa576115f961177c565b5b611629565b61160c84848460016114bf565b925090508184048111156116235761162261177c565b5b81810290505b9392505050565b600061163b82611706565b915061164683611706565b9250817fffffffffffffffffffffffffffffffffffffffffffffffffffffffffffffffff048311821515161561167f5761167e61177c565b5b828202905092915050565b600061169582611706565b91506116a083611706565b9250828210156116b3576116b261177c565b5b828203905092915050565b60006116c9826116e6565b9050919050565b60008115159050919050565b6000819050919050565b600073ffffffffffffffffffffffffffffffffffffffff82169050919050565b6000819050919050565b600060ff82169050919050565b600069ffffffffffffffffffff82169050919050565b600061173e82611706565b91507fffffffffffffffffffffffffffffffffffffffffffffffffffffffffffffffff8214156117715761177061177c565b5b600182019050919050565b7f4e487b7100000000000000000000000000000000000000000000000000000000600052601160045260246000fd5b7f4e487b7100000000000000000000000000000000000000000000000000000000600052601260045260246000fd5b60008160011c9050919050565b7f4f776e61626c653a206e6577206f776e657220697320746865207a65726f206160008201527f6464726573730000000000000000000000000000000000000000000000000000602082015250565b7f596f7572207061796d656e74206d75737420626520657175616c206f7220686960008201527f67686572207468616e2031302055534454000000000000000000000000000000602082015250565b7f596f757220616c6c6f636174696f6e206973206c6f7765722e00000000000000600082015250565b7f54727920746f2062757920666f72206c6573732065746865722e000000000000600082015250565b7f4f776e61626c653a2063616c6c6572206973206e6f7420746865206f776e6572600082015250565b7f596f7520616c7265616479207061696420666f7220746869732063616d70616960008201527f676e2e0000000000000000000000000000000000000000000000000000000000602082015250565b611958816116be565b811461196357600080fd5b50565b61196f816116d0565b811461197a57600080fd5b50565b611986816116dc565b811461199157600080fd5b50565b61199d81611706565b81146119a857600080fd5b50565b6119b481611710565b81146119bf57600080fd5b50565b6119cb8161171d565b81146119d657600080fd5b5056fea2646970667358221220c3e5912979f52fd8521385946c972c8b62dbb49208d8502568ccca3e355c00df64736f6c63430008010033",
  "immutableReferences": {},
  "source": "// SPDX-License-Identifier: UNLICENSED\npragma solidity ^0.8.0;\n\nimport \"@openzeppelin/contracts/access/Ownable.sol\";\nimport \"@openzeppelin/contracts/token/ERC20/IERC20.sol\";\nimport \"@chainlink/contracts/src/v0.8/interfaces/AggregatorV3Interface.sol\";\n\ncontract LauchpadDeal is Ownable {\n\n  // State variables\n  address[] public investors;\n\n  uint maxPool;\n  uint maxPoolPerUser;\n  uint currentPool;\n  IERC20 usdt = IERC20(0x110a13FC3efE6A245B50102D2d79B3E76125Ae83);\n  IERC20 paymentToken = usdt;\n  \n  \n  struct investorStruct {\n    uint pool;\n    bool isPaid;\n    bool isPaidFull;\n  }\n\n  constructor() {\n    maxPool = 1000;\n    maxPoolPerUser = 200;\n  }\n\n\n  // Mappings\n\n  mapping(address => investorStruct) private investorStructMapping;\n\n  mapping(address => address) public tokenPriceFeedMapping;\n\n  // Events\n  \n  event getAnInvestor(address _investor, uint _amount);\n\n  event userPaid(address _user, uint _amount);\n\n  event ownerReceivedFunds(address _owner, address _from, uint _amount);\n\n  // Modifiers\n\n  modifier UserCanPay(uint256 _amount) {\n    require(investorStructMapping[msg.sender].isPaid != true, \"You already paid for this campaign.\");\n    require(currentPool + _amount <= maxPool, \"Try to buy for less ether.\");\n    require(_amount >= 10, \"Your payment must be equal or higher than 10 USDT\");\n    require(_amount <= maxPoolPerUser, \"Your allocation is lower.\");\n    _;\n  }\n\n  // Functions\n\n  function setPriceFeedContract(address _token, address _priceFeed) public onlyOwner {\n    tokenPriceFeedMapping[_token] = _priceFeed;\n  }\n\n  function getTokenValue(address _token) public view returns(uint256, uint256) {\n    address priceFeedAddress = tokenPriceFeedMapping[_token];\n    AggregatorV3Interface priceFeed = AggregatorV3Interface(priceFeedAddress);\n    (,int256 price,,,) = priceFeed.latestRoundData();\n    uint256 decimals = priceFeed.decimals();\n    return (uint256(price), decimals);\n  }\n\n  function getUserPaymentTokenValue(address _user) public view returns(uint256) {\n    (uint256 price, uint256 decimals) = getTokenValue(address(paymentToken));\n    return (paymentToken.balanceOf(_user) * price / (10**decimals));\n    }\n\n  function payForDeal(uint256 _amount) external payable UserCanPay(_amount) {\n    address investor = msg.sender;\n    paymentToken.transferFrom(msg.sender, Ownable.owner(), _amount); \n    emit userPaid(investor, _amount);\n    investors.push(investor);\n    currentPool += _amount;\n    uint index = investors.length - 1;\n    investorStructMapping[investors[index]].pool = _amount;\n    investorStructMapping[investors[index]].isPaid = true;\n    if (_amount == maxPoolPerUser) {\n      investorStructMapping[investors[index]].isPaidFull = true;\n    }\n  }\n\n  function getInvestors() public {\n    for (uint i = 0; i < investors.length; i++) {\n      emit getAnInvestor(investors[i], investorStructMapping[investors[i]].pool);\n    }\n  }\n\n  function getCurrentPool() public view returns(uint) {\n    return currentPool;\n  }\n}\n  \n",
  "sourcePath": "/Users/mikolajdudzic/Documents/github/blockchain-developer-bootcamp-final-project/contracts/LaunchpadDeal.sol",
  "compiler": {
    "name": "solc",
    "version": "0.8.1+commit.df193b15.Emscripten.clang"
  },
  "schemaVersion": "3.4.3",
  "updatedAt": "2021-11-11T23:42:13.879Z",
  "devdoc": {
    "kind": "dev",
    "methods": {
      "owner()": {
        "details": "Returns the address of the current owner."
      },
      "renounceOwnership()": {
        "details": "Leaves the contract without owner. It will not be possible to call `onlyOwner` functions anymore. Can only be called by the current owner. NOTE: Renouncing ownership will leave the contract without an owner, thereby removing any functionality that is only available to the owner."
      },
      "transferOwnership(address)": {
        "details": "Transfers ownership of the contract to a new account (`newOwner`). Can only be called by the current owner."
      }
    },
    "version": 1
  },
  "userdoc": {
    "kind": "user",
    "methods": {},
    "version": 1
  }
}