{
  "contractName": "LaunchpadDeal",
  "abi": [
    {
      "inputs": [],
      "stateMutability": "nonpayable",
      "type": "constructor"
    },
    {
      "anonymous": false,
      "inputs": [
        {
          "indexed": true,
          "internalType": "address",
          "name": "previousOwner",
          "type": "address"
        },
        {
          "indexed": true,
          "internalType": "address",
          "name": "newOwner",
          "type": "address"
        }
      ],
      "name": "OwnershipTransferred",
      "type": "event"
    },
    {
      "anonymous": false,
      "inputs": [
        {
          "indexed": false,
          "internalType": "address",
          "name": "_investor",
          "type": "address"
        },
        {
          "indexed": false,
          "internalType": "uint256",
          "name": "_amount",
          "type": "uint256"
        }
      ],
      "name": "getAnInvestor",
      "type": "event"
    },
    {
      "anonymous": false,
      "inputs": [
        {
          "indexed": false,
          "internalType": "address",
          "name": "_owner",
          "type": "address"
        },
        {
          "indexed": false,
          "internalType": "address",
          "name": "_from",
          "type": "address"
        },
        {
          "indexed": false,
          "internalType": "uint256",
          "name": "_amount",
          "type": "uint256"
        }
      ],
      "name": "ownerReceivedFunds",
      "type": "event"
    },
    {
      "anonymous": false,
      "inputs": [
        {
          "indexed": false,
          "internalType": "address",
          "name": "_user",
          "type": "address"
        },
        {
          "indexed": false,
          "internalType": "uint256",
          "name": "_amount",
          "type": "uint256"
        }
      ],
      "name": "userPaid",
      "type": "event"
    },
    {
      "inputs": [],
      "name": "dealToken",
      "outputs": [
        {
          "internalType": "contract IERC20",
          "name": "",
          "type": "address"
        }
      ],
      "stateMutability": "view",
      "type": "function",
      "constant": true
    },
    {
      "inputs": [
        {
          "internalType": "uint256",
          "name": "",
          "type": "uint256"
        }
      ],
      "name": "investors",
      "outputs": [
        {
          "internalType": "address",
          "name": "",
          "type": "address"
        }
      ],
      "stateMutability": "view",
      "type": "function",
      "constant": true
    },
    {
      "inputs": [],
      "name": "owner",
      "outputs": [
        {
          "internalType": "address",
          "name": "",
          "type": "address"
        }
      ],
      "stateMutability": "view",
      "type": "function",
      "constant": true
    },
    {
      "inputs": [],
      "name": "paymentToken",
      "outputs": [
        {
          "internalType": "contract IERC20",
          "name": "",
          "type": "address"
        }
      ],
      "stateMutability": "view",
      "type": "function",
      "constant": true
    },
    {
      "inputs": [],
      "name": "renounceOwnership",
      "outputs": [],
      "stateMutability": "nonpayable",
      "type": "function"
    },
    {
      "inputs": [
        {
          "internalType": "address",
          "name": "newOwner",
          "type": "address"
        }
      ],
      "name": "transferOwnership",
      "outputs": [],
      "stateMutability": "nonpayable",
      "type": "function"
    },
    {
      "inputs": [
        {
          "internalType": "uint256",
          "name": "_maxPool",
          "type": "uint256"
        },
        {
          "internalType": "uint256",
          "name": "_maxPoolPerUser",
          "type": "uint256"
        },
        {
          "internalType": "address",
          "name": "_dealToken",
          "type": "address"
        },
        {
          "internalType": "address",
          "name": "_pToken",
          "type": "address"
        }
      ],
      "name": "setParameters",
      "outputs": [],
      "stateMutability": "nonpayable",
      "type": "function"
    },
    {
      "inputs": [
        {
          "internalType": "uint256",
          "name": "_amount",
          "type": "uint256"
        }
      ],
      "name": "formatValue",
      "outputs": [
        {
          "internalType": "uint256",
          "name": "",
          "type": "uint256"
        }
      ],
      "stateMutability": "pure",
      "type": "function",
      "constant": true
    },
    {
      "inputs": [
        {
          "internalType": "uint256",
          "name": "_amount",
          "type": "uint256"
        }
      ],
      "name": "payForDeal",
      "outputs": [],
      "stateMutability": "nonpayable",
      "type": "function"
    },
    {
      "inputs": [
        {
          "internalType": "uint256",
          "name": "_amount",
          "type": "uint256"
        }
      ],
      "name": "approvePToken",
      "outputs": [],
      "stateMutability": "nonpayable",
      "type": "function"
    },
    {
      "inputs": [],
      "name": "claimDealToken",
      "outputs": [],
      "stateMutability": "payable",
      "type": "function",
      "payable": true
    },
    {
      "inputs": [],
      "name": "getInvestors",
      "outputs": [],
      "stateMutability": "nonpayable",
      "type": "function"
    },
    {
      "inputs": [],
      "name": "getCurrentPool",
      "outputs": [
        {
          "internalType": "uint256",
          "name": "",
          "type": "uint256"
        }
      ],
      "stateMutability": "view",
      "type": "function",
      "constant": true
    }
  ],
  "bytecode": "0x608060405234801561001057600080fd5b5061002d61002261003260201b60201c565b61003a60201b60201c565b6100fe565b600033905090565b60008060009054906101000a900473ffffffffffffffffffffffffffffffffffffffff169050816000806101000a81548173ffffffffffffffffffffffffffffffffffffffff021916908373ffffffffffffffffffffffffffffffffffffffff1602179055508173ffffffffffffffffffffffffffffffffffffffff168173ffffffffffffffffffffffffffffffffffffffff167f8be0079c531659141344cd1fd0a4f28419497f9722a3daafe3b4186f6b6457e060405160405180910390a35050565b611b298061010d6000396000f3fe6080604052600436106100c25760003560e01c80635280c3ee1161007f5780637e1c5754116100595780637e1c5754146102215780638da5cb5b1461025e578063b2f5a54c14610289578063f2fde38b146102a0576100c2565b80635280c3ee146101b6578063715018a6146101e157806375f75cf2146101f8576100c2565b80631a595f65146100c75780632faad3fc146100f25780633013ce291461011b5780633207f8b4146101465780633feb5f2b14610150578063411c46be1461018d575b600080fd5b3480156100d357600080fd5b506100dc6102c9565b6040516100e991906112db565b60405180910390f35b3480156100fe57600080fd5b5061011960048036038101906101149190611327565b6102d3565b005b34801561012757600080fd5b50610130610612565b60405161013d91906113d3565b60405180910390f35b61014e610638565b005b34801561015c57600080fd5b5061017760048036038101906101729190611327565b610807565b604051610184919061140f565b60405180910390f35b34801561019957600080fd5b506101b460048036038101906101af9190611456565b610846565b005b3480156101c257600080fd5b506101cb610968565b6040516101d891906113d3565b60405180910390f35b3480156101ed57600080fd5b506101f661098e565b005b34801561020457600080fd5b5061021f600480360381019061021a9190611327565b610a16565b005b34801561022d57600080fd5b5061024860048036038101906102439190611327565b610f96565b60405161025591906112db565b60405180910390f35b34801561026a57600080fd5b50610273610fb8565b604051610280919061140f565b60405180910390f35b34801561029557600080fd5b5061029e610fe1565b005b3480156102ac57600080fd5b506102c760048036038101906102c291906114bd565b6110fe565b005b6000600454905090565b8060006102df82610f96565b905060011515600760003373ffffffffffffffffffffffffffffffffffffffff1673ffffffffffffffffffffffffffffffffffffffff16815260200190815260200160002060010160009054906101000a900460ff1615151415610378576040517f08c379a000000000000000000000000000000000000000000000000000000000815260040161036f9061156d565b60405180910390fd5b6002548260045461038991906115bc565b11156103ca576040517f08c379a00000000000000000000000000000000000000000000000000000000081526004016103c19061165e565b60405180910390fd5b6103d4600a610f96565b811015610416576040517f08c379a000000000000000000000000000000000000000000000000000000000815260040161040d906116f0565b60405180910390fd5b60035481111561045b576040517f08c379a00000000000000000000000000000000000000000000000000000000081526004016104529061175c565b60405180910390fd5b6000600560009054906101000a900473ffffffffffffffffffffffffffffffffffffffff1673ffffffffffffffffffffffffffffffffffffffff166370a08231336040518263ffffffff1660e01b81526004016104b8919061140f565b602060405180830381865afa1580156104d5573d6000803e3d6000fd5b505050506040513d601f19601f820116820180604052508101906104f99190611791565b1161050357600080fd5b600061050e84610f96565b9050600560009054906101000a900473ffffffffffffffffffffffffffffffffffffffff1673ffffffffffffffffffffffffffffffffffffffff1663095ea7b333836040518363ffffffff1660e01b815260040161056d9291906117be565b6020604051808303816000875af115801561058c573d6000803e3d6000fd5b505050506040513d601f19601f820116820180604052508101906105b0919061181f565b506001600760003373ffffffffffffffffffffffffffffffffffffffff1673ffffffffffffffffffffffffffffffffffffffff16815260200190815260200160002060010160026101000a81548160ff02191690831515021790555050505050565b600560009054906101000a900473ffffffffffffffffffffffffffffffffffffffff1681565b60005b6001805490508110156107cb573373ffffffffffffffffffffffffffffffffffffffff16600182815481106106735761067261184c565b5b9060005260206000200160009054906101000a900473ffffffffffffffffffffffffffffffffffffffff1673ffffffffffffffffffffffffffffffffffffffff1614156107b8576000600760003373ffffffffffffffffffffffffffffffffffffffff1673ffffffffffffffffffffffffffffffffffffffff1681526020019081526020016000206000015490506000600282610710919061187b565b9050600660009054906101000a900473ffffffffffffffffffffffffffffffffffffffff1673ffffffffffffffffffffffffffffffffffffffff166323b872dd3033846040518463ffffffff1660e01b8152600401610771939291906118d5565b6020604051808303816000875af1158015610790573d6000803e3d6000fd5b505050506040513d601f19601f820116820180604052508101906107b4919061181f565b5050505b80806107c39061190c565b91505061063b565b506040517f08c379a00000000000000000000000000000000000000000000000000000000081526004016107fe906119a1565b60405180910390fd5b6001818154811061081757600080fd5b906000526020600020016000915054906101000a900473ffffffffffffffffffffffffffffffffffffffff1681565b61084e6111f6565b73ffffffffffffffffffffffffffffffffffffffff1661086c610fb8565b73ffffffffffffffffffffffffffffffffffffffff16146108c2576040517f08c379a00000000000000000000000000000000000000000000000000000000081526004016108b990611a0d565b60405180910390fd5b6108cb84610f96565b6002819055506108da83610f96565b60038190555080600560006101000a81548173ffffffffffffffffffffffffffffffffffffffff021916908373ffffffffffffffffffffffffffffffffffffffff16021790555081600660006101000a81548173ffffffffffffffffffffffffffffffffffffffff021916908373ffffffffffffffffffffffffffffffffffffffff16021790555050505050565b600660009054906101000a900473ffffffffffffffffffffffffffffffffffffffff1681565b6109966111f6565b73ffffffffffffffffffffffffffffffffffffffff166109b4610fb8565b73ffffffffffffffffffffffffffffffffffffffff1614610a0a576040517f08c379a0000000000000000000000000000000000000000000000000000000008152600401610a0190611a0d565b60405180910390fd5b610a1460006111fe565b565b806000610a2282610f96565b905060011515600760003373ffffffffffffffffffffffffffffffffffffffff1673ffffffffffffffffffffffffffffffffffffffff16815260200190815260200160002060010160009054906101000a900460ff1615151415610abb576040517f08c379a0000000000000000000000000000000000000000000000000000000008152600401610ab29061156d565b60405180910390fd5b60025482600454610acc91906115bc565b1115610b0d576040517f08c379a0000000000000000000000000000000000000000000000000000000008152600401610b049061165e565b60405180910390fd5b610b17600a610f96565b811015610b59576040517f08c379a0000000000000000000000000000000000000000000000000000000008152600401610b50906116f0565b60405180910390fd5b600354811115610b9e576040517f08c379a0000000000000000000000000000000000000000000000000000000008152600401610b959061175c565b60405180910390fd5b6000600560009054906101000a900473ffffffffffffffffffffffffffffffffffffffff1673ffffffffffffffffffffffffffffffffffffffff166370a08231336040518263ffffffff1660e01b8152600401610bfb919061140f565b602060405180830381865afa158015610c18573d6000803e3d6000fd5b505050506040513d601f19601f82011682018060405250810190610c3c9190611791565b11610c4657600080fd5b60003390506000610c5685610f96565b9050600560009054906101000a900473ffffffffffffffffffffffffffffffffffffffff1673ffffffffffffffffffffffffffffffffffffffff166323b872dd83610c9f610fb8565b846040518463ffffffff1660e01b8152600401610cbe939291906118d5565b6020604051808303816000875af1158015610cdd573d6000803e3d6000fd5b505050506040513d601f19601f82011682018060405250810190610d01919061181f565b507f46ae6afe7be0777fce4fbc0d5a9cf924488d045626085179258494ce93b4a7ed8282604051610d339291906117be565b60405180910390a16001829080600181540180825580915050600190039060005260206000200160009091909190916101000a81548173ffffffffffffffffffffffffffffffffffffffff021916908373ffffffffffffffffffffffffffffffffffffffff1602179055508060046000828254610db091906115bc565b92505081905550600060018080549050610dca9190611a2d565b9050816007600060018481548110610de557610de461184c565b5b9060005260206000200160009054906101000a900473ffffffffffffffffffffffffffffffffffffffff1673ffffffffffffffffffffffffffffffffffffffff1673ffffffffffffffffffffffffffffffffffffffff1681526020019081526020016000206000018190555060016007600060018481548110610e6b57610e6a61184c565b5b9060005260206000200160009054906101000a900473ffffffffffffffffffffffffffffffffffffffff1673ffffffffffffffffffffffffffffffffffffffff1673ffffffffffffffffffffffffffffffffffffffff16815260200190815260200160002060010160006101000a81548160ff021916908315150217905550600354821415610f8e5760016007600060018481548110610f0e57610f0d61184c565b5b9060005260206000200160009054906101000a900473ffffffffffffffffffffffffffffffffffffffff1673ffffffffffffffffffffffffffffffffffffffff1673ffffffffffffffffffffffffffffffffffffffff16815260200190815260200160002060010160016101000a81548160ff0219169083151502179055505b505050505050565b600080670de0b6b3a764000083610fad919061187b565b905080915050919050565b60008060009054906101000a900473ffffffffffffffffffffffffffffffffffffffff16905090565b60005b6001805490508110156110fb577f53d7b83e667fe28f3a9a68822455d9b9237ef1a9ed01f0bf13023909607af8e2600182815481106110265761102561184c565b5b9060005260206000200160009054906101000a900473ffffffffffffffffffffffffffffffffffffffff1660076000600185815481106110695761106861184c565b5b9060005260206000200160009054906101000a900473ffffffffffffffffffffffffffffffffffffffff1673ffffffffffffffffffffffffffffffffffffffff1673ffffffffffffffffffffffffffffffffffffffff168152602001908152602001600020600001546040516110e09291906117be565b60405180910390a180806110f39061190c565b915050610fe4565b50565b6111066111f6565b73ffffffffffffffffffffffffffffffffffffffff16611124610fb8565b73ffffffffffffffffffffffffffffffffffffffff161461117a576040517f08c379a000000000000000000000000000000000000000000000000000000000815260040161117190611a0d565b60405180910390fd5b600073ffffffffffffffffffffffffffffffffffffffff168173ffffffffffffffffffffffffffffffffffffffff1614156111ea576040517f08c379a00000000000000000000000000000000000000000000000000000000081526004016111e190611ad3565b60405180910390fd5b6111f3816111fe565b50565b600033905090565b60008060009054906101000a900473ffffffffffffffffffffffffffffffffffffffff169050816000806101000a81548173ffffffffffffffffffffffffffffffffffffffff021916908373ffffffffffffffffffffffffffffffffffffffff1602179055508173ffffffffffffffffffffffffffffffffffffffff168173ffffffffffffffffffffffffffffffffffffffff167f8be0079c531659141344cd1fd0a4f28419497f9722a3daafe3b4186f6b6457e060405160405180910390a35050565b6000819050919050565b6112d5816112c2565b82525050565b60006020820190506112f060008301846112cc565b92915050565b600080fd5b611304816112c2565b811461130f57600080fd5b50565b600081359050611321816112fb565b92915050565b60006020828403121561133d5761133c6112f6565b5b600061134b84828501611312565b91505092915050565b600073ffffffffffffffffffffffffffffffffffffffff82169050919050565b6000819050919050565b600061139961139461138f84611354565b611374565b611354565b9050919050565b60006113ab8261137e565b9050919050565b60006113bd826113a0565b9050919050565b6113cd816113b2565b82525050565b60006020820190506113e860008301846113c4565b92915050565b60006113f982611354565b9050919050565b611409816113ee565b82525050565b60006020820190506114246000830184611400565b92915050565b611433816113ee565b811461143e57600080fd5b50565b6000813590506114508161142a565b92915050565b600080600080608085870312156114705761146f6112f6565b5b600061147e87828801611312565b945050602061148f87828801611312565b93505060406114a087828801611441565b92505060606114b187828801611441565b91505092959194509250565b6000602082840312156114d3576114d26112f6565b5b60006114e184828501611441565b91505092915050565b600082825260208201905092915050565b7f596f7520616c7265616479207061696420666f7220746869732063616d70616960008201527f676e2e0000000000000000000000000000000000000000000000000000000000602082015250565b60006115576023836114ea565b9150611562826114fb565b604082019050919050565b600060208201905081810360008301526115868161154a565b9050919050565b7f4e487b7100000000000000000000000000000000000000000000000000000000600052601160045260246000fd5b60006115c7826112c2565b91506115d2836112c2565b9250827fffffffffffffffffffffffffffffffffffffffffffffffffffffffffffffffff038211156116075761160661158d565b5b828201905092915050565b7f54727920746f2062757920666f72206c6573732070746f6b656e2e0000000000600082015250565b6000611648601b836114ea565b915061165382611612565b602082019050919050565b600060208201905081810360008301526116778161163b565b9050919050565b7f596f7572207061796d656e74206d75737420626520657175616c206f7220686960008201527f67686572207468616e2031302055534454000000000000000000000000000000602082015250565b60006116da6031836114ea565b91506116e58261167e565b604082019050919050565b60006020820190508181036000830152611709816116cd565b9050919050565b7f596f757220616c6c6f636174696f6e206973206c6f7765722e00000000000000600082015250565b60006117466019836114ea565b915061175182611710565b602082019050919050565b6000602082019050818103600083015261177581611739565b9050919050565b60008151905061178b816112fb565b92915050565b6000602082840312156117a7576117a66112f6565b5b60006117b58482850161177c565b91505092915050565b60006040820190506117d36000830185611400565b6117e060208301846112cc565b9392505050565b60008115159050919050565b6117fc816117e7565b811461180757600080fd5b50565b600081519050611819816117f3565b92915050565b600060208284031215611835576118346112f6565b5b60006118438482850161180a565b91505092915050565b7f4e487b7100000000000000000000000000000000000000000000000000000000600052603260045260246000fd5b6000611886826112c2565b9150611891836112c2565b9250817fffffffffffffffffffffffffffffffffffffffffffffffffffffffffffffffff04831182151516156118ca576118c961158d565b5b828202905092915050565b60006060820190506118ea6000830186611400565b6118f76020830185611400565b61190460408301846112cc565b949350505050565b6000611917826112c2565b91507fffffffffffffffffffffffffffffffffffffffffffffffffffffffffffffffff82141561194a5761194961158d565b5b600182019050919050565b7f596f7520617265206e6f7420616e20696e766573746f72210000000000000000600082015250565b600061198b6018836114ea565b915061199682611955565b602082019050919050565b600060208201905081810360008301526119ba8161197e565b9050919050565b7f4f776e61626c653a2063616c6c6572206973206e6f7420746865206f776e6572600082015250565b60006119f76020836114ea565b9150611a02826119c1565b602082019050919050565b60006020820190508181036000830152611a26816119ea565b9050919050565b6000611a38826112c2565b9150611a43836112c2565b925082821015611a5657611a5561158d565b5b828203905092915050565b7f4f776e61626c653a206e6577206f776e657220697320746865207a65726f206160008201527f6464726573730000000000000000000000000000000000000000000000000000602082015250565b6000611abd6026836114ea565b9150611ac882611a61565b604082019050919050565b60006020820190508181036000830152611aec81611ab0565b905091905056fea2646970667358221220200fcf150f438674ff12eee40e731830fff0e7b530c72f5a01ff8e54e62b2af464736f6c634300080a0033",
  "immutableReferences": {},
  "source": "// SPDX-License-Identifier: UNLICENSED\npragma solidity ^0.8.0;\n\nimport \"@openzeppelin/contracts/access/Ownable.sol\";\nimport \"@openzeppelin/contracts/token/ERC20/IERC20.sol\";\n\ncontract LaunchpadDeal is Ownable {\n\n  // State variables\n  address[] public investors;\n\n  uint256 maxPool;\n  uint256 maxPoolPerUser;\n  uint256 currentPool;\n  IERC20 public paymentToken;\n  IERC20 public dealToken;\n\n  \n  \n  struct investorStruct {\n    uint pool;\n    bool isPaid;\n    bool isPaidFull;\n    bool isApproved;\n  }\n\n  constructor() {}\n\n\n  // Mappings\n\n  mapping(address => investorStruct) private investorStructMapping;\n\n  // Events\n  \n  event getAnInvestor(address _investor, uint _amount);\n\n  event userPaid(address _user, uint _amount);\n\n  event ownerReceivedFunds(address _owner, address _from, uint _amount);\n\n  // Modifiers\n\n  modifier UserCanPay(uint256 _amount) {\n    uint256 formatedAmount = formatValue(_amount); \n    require(investorStructMapping[msg.sender].isPaid != true, \"You already paid for this campaign.\");\n    require(currentPool + _amount <= maxPool, \"Try to buy for less ptoken.\");\n    require(formatedAmount >= formatValue(10), \"Your payment must be equal or higher than 10 USDT\");\n    require(formatedAmount <= maxPoolPerUser, \"Your allocation is lower.\");\n    require(paymentToken.balanceOf(msg.sender) > 0);\n    _;\n  }\n  \n  modifier isAnInvestor() {\n    for (uint i = 0; i < investors.length; i++) {\n      if (investors[i] == msg.sender) {\n        _;\n      }\n    }\n    revert(\"You are not an investor!\");\n  }\n\n  function setParameters(uint256 _maxPool, uint256 _maxPoolPerUser, address _dealToken, address _pToken) external onlyOwner {\n    maxPool = formatValue(_maxPool);\n    maxPoolPerUser = formatValue(_maxPoolPerUser);\n    paymentToken = IERC20(_pToken); // PToken\n    dealToken = IERC20(_dealToken); \n  }\n\n  // Functions\n  function formatValue(uint256 _amount) public pure returns(uint) {\n    uint256 currentFormatedValue = _amount * 1000000000000000000;\n    return currentFormatedValue;\n  }\n  \n  function payForDeal(uint256 _amount) external UserCanPay(_amount) {\n    address investor = msg.sender;\n    uint256 formatedAmount = formatValue(_amount);\n    paymentToken.transferFrom(investor, Ownable.owner(), formatedAmount);\n    emit userPaid(investor, formatedAmount);\n    investors.push(investor);\n    currentPool += formatedAmount;\n    uint index = investors.length - 1;\n    investorStructMapping[investors[index]].pool = formatedAmount;\n    investorStructMapping[investors[index]].isPaid = true;\n    if (formatedAmount == maxPoolPerUser) {\n      investorStructMapping[investors[index]].isPaidFull = true;\n    }\n  }\n\n  // function withdrawFunds(uint256 _amount) external payable onlyOwner {\n  //   uint256 formatedAmount = formatValue(_amount);\n  //   paymentToken.transferFrom(address(this), Ownable.owner(), formatedAmount);\n  //   emit ownerReceivedFunds(owner(), address(this), formatedAmount);\n  // }\n  \n  function approvePToken(uint256 _amount) external UserCanPay(_amount) {\n    uint256 formatedAmount = formatValue(_amount);\n    paymentToken.approve(msg.sender, formatedAmount);\n    investorStructMapping[msg.sender].isApproved = true;\n  }\n  \n  function claimDealToken() external payable isAnInvestor {\n    //1 COIN = 0,5 USDT\n    uint256 investorPool = investorStructMapping[msg.sender].pool;\n    uint256 amountToClaim = investorPool * 2;\n    dealToken.transferFrom(address(this), msg.sender, amountToClaim);\n  }\n\n  function getInvestors() public {\n    for (uint i = 0; i < investors.length; i++) {\n      emit getAnInvestor(investors[i], investorStructMapping[investors[i]].pool);\n    }\n  }\n\n  function getCurrentPool() public view returns(uint) {\n    return currentPool;\n  }\n}",
  "sourcePath": "/Users/mikolajdudzic/Documents/FinalProject/contracts/LaunchpadDeal.sol",
  "compiler": {
    "name": "solc",
    "version": "0.8.10+commit.fc410830.Emscripten.clang"
  },
  "schemaVersion": "3.4.3",
  "updatedAt": "2021-11-22T13:38:04.424Z",
  "networkType": "ethereum",
  "devdoc": {
    "kind": "dev",
    "methods": {
      "owner()": {
        "details": "Returns the address of the current owner."
      },
      "renounceOwnership()": {
        "details": "Leaves the contract without owner. It will not be possible to call `onlyOwner` functions anymore. Can only be called by the current owner. NOTE: Renouncing ownership will leave the contract without an owner, thereby removing any functionality that is only available to the owner."
      },
      "transferOwnership(address)": {
        "details": "Transfers ownership of the contract to a new account (`newOwner`). Can only be called by the current owner."
      }
    },
    "version": 1
  },
  "userdoc": {
    "kind": "user",
    "methods": {},
    "version": 1
  }
}