{
  "contractName": "LaunchpadDeal",
  "abi": [
    {
      "anonymous": false,
      "inputs": [
        {
          "indexed": false,
          "internalType": "address",
          "name": "_investor",
          "type": "address"
        },
        {
          "indexed": false,
          "internalType": "uint256",
          "name": "_amount",
          "type": "uint256"
        }
      ],
      "name": "GetAnInvestor",
      "type": "event"
    },
    {
      "anonymous": false,
      "inputs": [
        {
          "indexed": false,
          "internalType": "address",
          "name": "_owner",
          "type": "address"
        },
        {
          "indexed": false,
          "internalType": "address",
          "name": "_from",
          "type": "address"
        },
        {
          "indexed": false,
          "internalType": "uint256",
          "name": "_amount",
          "type": "uint256"
        }
      ],
      "name": "OwnerReceivedFunds",
      "type": "event"
    },
    {
      "anonymous": false,
      "inputs": [
        {
          "indexed": true,
          "internalType": "address",
          "name": "previousOwner",
          "type": "address"
        },
        {
          "indexed": true,
          "internalType": "address",
          "name": "newOwner",
          "type": "address"
        }
      ],
      "name": "OwnershipTransferred",
      "type": "event"
    },
    {
      "anonymous": false,
      "inputs": [
        {
          "indexed": false,
          "internalType": "address",
          "name": "_investor",
          "type": "address"
        },
        {
          "indexed": false,
          "internalType": "uint256",
          "name": "_amount",
          "type": "uint256"
        }
      ],
      "name": "UserPaid",
      "type": "event"
    },
    {
      "inputs": [
        {
          "internalType": "uint256",
          "name": "",
          "type": "uint256"
        }
      ],
      "name": "investors",
      "outputs": [
        {
          "internalType": "address",
          "name": "",
          "type": "address"
        }
      ],
      "stateMutability": "view",
      "type": "function",
      "constant": true
    },
    {
      "inputs": [],
      "name": "owner",
      "outputs": [
        {
          "internalType": "address",
          "name": "",
          "type": "address"
        }
      ],
      "stateMutability": "view",
      "type": "function",
      "constant": true
    },
    {
      "inputs": [],
      "name": "paymentToken",
      "outputs": [
        {
          "internalType": "contract IERC20",
          "name": "",
          "type": "address"
        }
      ],
      "stateMutability": "view",
      "type": "function",
      "constant": true
    },
    {
      "inputs": [],
      "name": "renounceOwnership",
      "outputs": [],
      "stateMutability": "nonpayable",
      "type": "function"
    },
    {
      "inputs": [
        {
          "internalType": "address",
          "name": "newOwner",
          "type": "address"
        }
      ],
      "name": "transferOwnership",
      "outputs": [],
      "stateMutability": "nonpayable",
      "type": "function"
    },
    {
      "inputs": [
        {
          "internalType": "uint256",
          "name": "_maxPool",
          "type": "uint256"
        },
        {
          "internalType": "uint256",
          "name": "_maxPoolPerUser",
          "type": "uint256"
        },
        {
          "internalType": "uint256",
          "name": "_minPoolPerUser",
          "type": "uint256"
        },
        {
          "internalType": "address",
          "name": "_pToken",
          "type": "address"
        }
      ],
      "name": "setParameters",
      "outputs": [],
      "stateMutability": "nonpayable",
      "type": "function"
    },
    {
      "inputs": [
        {
          "internalType": "uint256",
          "name": "_amount",
          "type": "uint256"
        }
      ],
      "name": "payForDeal",
      "outputs": [],
      "stateMutability": "nonpayable",
      "type": "function"
    },
    {
      "inputs": [],
      "name": "getInvestors",
      "outputs": [],
      "stateMutability": "nonpayable",
      "type": "function"
    },
    {
      "inputs": [],
      "name": "getCurrentPool",
      "outputs": [
        {
          "internalType": "uint256",
          "name": "",
          "type": "uint256"
        }
      ],
      "stateMutability": "view",
      "type": "function",
      "constant": true
    },
    {
      "inputs": [
        {
          "internalType": "address",
          "name": "_address",
          "type": "address"
        }
      ],
      "name": "getBalance",
      "outputs": [
        {
          "internalType": "uint256",
          "name": "",
          "type": "uint256"
        }
      ],
      "stateMutability": "view",
      "type": "function",
      "constant": true
    },
    {
      "inputs": [
        {
          "internalType": "uint256",
          "name": "_amount",
          "type": "uint256"
        }
      ],
      "name": "getNum",
      "outputs": [
        {
          "internalType": "uint256",
          "name": "",
          "type": "uint256"
        }
      ],
      "stateMutability": "view",
      "type": "function",
      "constant": true
    }
  ],
  "bytecode": "0x608060405234801561001057600080fd5b5061002d61002261003260201b60201c565b61003a60201b60201c565b6100fe565b600033905090565b60008060009054906101000a900473ffffffffffffffffffffffffffffffffffffffff169050816000806101000a81548173ffffffffffffffffffffffffffffffffffffffff021916908373ffffffffffffffffffffffffffffffffffffffff1602179055508173ffffffffffffffffffffffffffffffffffffffff168173ffffffffffffffffffffffffffffffffffffffff167f8be0079c531659141344cd1fd0a4f28419497f9722a3daafe3b4186f6b6457e060405160405180910390a35050565b61168e8061010d6000396000f3fe608060405234801561001057600080fd5b50600436106100a95760003560e01c806375f75cf21161007157806375f75cf2146101405780638da5cb5b1461015c578063b2f5a54c1461017a578063f2fde38b14610184578063f3358ac4146101a0578063f8b2cb4f146101d0576100a9565b80631a595f65146100ae5780633013ce29146100cc5780633d115a99146100ea5780633feb5f2b14610106578063715018a614610136575b600080fd5b6100b6610200565b6040516100c39190610f06565b60405180910390f35b6100d461020a565b6040516100e19190610fa0565b60405180910390f35b61010460048036038101906100ff919061102a565b610230565b005b610120600480360381019061011b9190611091565b610310565b60405161012d91906110cd565b60405180910390f35b61013e61034f565b005b61015a60048036038101906101559190611091565b6103d7565b005b61016461089b565b60405161017191906110cd565b60405180910390f35b6101826108c4565b005b61019e600480360381019061019991906110e8565b610a5d565b005b6101ba60048036038101906101b59190611091565b610b55565b6040516101c79190610f06565b60405180910390f35b6101ea60048036038101906101e591906110e8565b610d7c565b6040516101f79190610f06565b60405180910390f35b6000600554905090565b600660009054906101000a900473ffffffffffffffffffffffffffffffffffffffff1681565b610238610e21565b73ffffffffffffffffffffffffffffffffffffffff1661025661089b565b73ffffffffffffffffffffffffffffffffffffffff16146102ac576040517f08c379a00000000000000000000000000000000000000000000000000000000081526004016102a390611172565b60405180910390fd5b83600281905550826003819055508160048190555080600660006101000a81548173ffffffffffffffffffffffffffffffffffffffff021916908373ffffffffffffffffffffffffffffffffffffffff160217905550600060058190555050505050565b6001818154811061032057600080fd5b906000526020600020016000915054906101000a900473ffffffffffffffffffffffffffffffffffffffff1681565b610357610e21565b73ffffffffffffffffffffffffffffffffffffffff1661037561089b565b73ffffffffffffffffffffffffffffffffffffffff16146103cb576040517f08c379a00000000000000000000000000000000000000000000000000000000081526004016103c290611172565b60405180910390fd5b6103d56000610e29565b565b806000600660009054906101000a900473ffffffffffffffffffffffffffffffffffffffff1673ffffffffffffffffffffffffffffffffffffffff166370a08231336040518263ffffffff1660e01b815260040161043591906110cd565b602060405180830381865afa158015610452573d6000803e3d6000fd5b505050506040513d601f19601f8201168201806040525081019061047691906111a7565b1161048057600080fd5b60011515600760003373ffffffffffffffffffffffffffffffffffffffff1673ffffffffffffffffffffffffffffffffffffffff16815260200190815260200160002060010160009054906101000a900460ff1615151415610517576040517f08c379a000000000000000000000000000000000000000000000000000000000815260040161050e90611246565b60405180910390fd5b600254816005546105289190611295565b1115610569576040517f08c379a000000000000000000000000000000000000000000000000000000000815260040161056090611337565b60405180910390fd5b6004548110156105ae576040517f08c379a00000000000000000000000000000000000000000000000000000000081526004016105a5906113c9565b60405180910390fd5b6003548111156105f3576040517f08c379a00000000000000000000000000000000000000000000000000000000081526004016105ea90611435565b60405180910390fd5b6000339050600660009054906101000a900473ffffffffffffffffffffffffffffffffffffffff1673ffffffffffffffffffffffffffffffffffffffff166323b872dd8261063f61089b565b866040518463ffffffff1660e01b815260040161065e93929190611455565b6020604051808303816000875af115801561067d573d6000803e3d6000fd5b505050506040513d601f19601f820116820180604052508101906106a191906114c4565b507f188c4d19b4fadd1889d9bd9bf0ab7c97e0719434751e6c05feac6339c1c001ec81846040516106d39291906114f1565b60405180910390a16001819080600181540180825580915050600190039060005260206000200160009091909190916101000a81548173ffffffffffffffffffffffffffffffffffffffff021916908373ffffffffffffffffffffffffffffffffffffffff16021790555082600560008282546107509190611295565b9250508190555060006001808054905061076a919061151a565b90508360076000600184815481106107855761078461154e565b5b9060005260206000200160009054906101000a900473ffffffffffffffffffffffffffffffffffffffff1673ffffffffffffffffffffffffffffffffffffffff1673ffffffffffffffffffffffffffffffffffffffff1681526020019081526020016000206000018190555060035484141561089557600160076000600184815481106108155761081461154e565b5b9060005260206000200160009054906101000a900473ffffffffffffffffffffffffffffffffffffffff1673ffffffffffffffffffffffffffffffffffffffff1673ffffffffffffffffffffffffffffffffffffffff16815260200190815260200160002060010160006101000a81548160ff0219169083151502179055505b50505050565b60008060009054906101000a900473ffffffffffffffffffffffffffffffffffffffff16905090565b6108cc610e21565b73ffffffffffffffffffffffffffffffffffffffff166108ea61089b565b73ffffffffffffffffffffffffffffffffffffffff1614610940576040517f08c379a000000000000000000000000000000000000000000000000000000000815260040161093790611172565b60405180910390fd5b60005b600180549050811015610a5a577fa83c15bde8b888b4e95510792b2985ed6e73b5017135d06f0a88011cbe894895600182815481106109855761098461154e565b5b9060005260206000200160009054906101000a900473ffffffffffffffffffffffffffffffffffffffff1660076000600185815481106109c8576109c761154e565b5b9060005260206000200160009054906101000a900473ffffffffffffffffffffffffffffffffffffffff1673ffffffffffffffffffffffffffffffffffffffff1673ffffffffffffffffffffffffffffffffffffffff16815260200190815260200160002060000154604051610a3f9291906114f1565b60405180910390a18080610a529061157d565b915050610943565b50565b610a65610e21565b73ffffffffffffffffffffffffffffffffffffffff16610a8361089b565b73ffffffffffffffffffffffffffffffffffffffff1614610ad9576040517f08c379a0000000000000000000000000000000000000000000000000000000008152600401610ad090611172565b60405180910390fd5b600073ffffffffffffffffffffffffffffffffffffffff168173ffffffffffffffffffffffffffffffffffffffff161415610b49576040517f08c379a0000000000000000000000000000000000000000000000000000000008152600401610b4090611638565b60405180910390fd5b610b5281610e29565b50565b6000816000600660009054906101000a900473ffffffffffffffffffffffffffffffffffffffff1673ffffffffffffffffffffffffffffffffffffffff166370a08231336040518263ffffffff1660e01b8152600401610bb591906110cd565b602060405180830381865afa158015610bd2573d6000803e3d6000fd5b505050506040513d601f19601f82011682018060405250810190610bf691906111a7565b11610c0057600080fd5b60011515600760003373ffffffffffffffffffffffffffffffffffffffff1673ffffffffffffffffffffffffffffffffffffffff16815260200190815260200160002060010160009054906101000a900460ff1615151415610c97576040517f08c379a0000000000000000000000000000000000000000000000000000000008152600401610c8e90611246565b60405180910390fd5b60025481600554610ca89190611295565b1115610ce9576040517f08c379a0000000000000000000000000000000000000000000000000000000008152600401610ce090611337565b60405180910390fd5b600454811015610d2e576040517f08c379a0000000000000000000000000000000000000000000000000000000008152600401610d25906113c9565b60405180910390fd5b600354811115610d73576040517f08c379a0000000000000000000000000000000000000000000000000000000008152600401610d6a90611435565b60405180910390fd5b82915050919050565b6000600660009054906101000a900473ffffffffffffffffffffffffffffffffffffffff1673ffffffffffffffffffffffffffffffffffffffff166370a08231836040518263ffffffff1660e01b8152600401610dd991906110cd565b602060405180830381865afa158015610df6573d6000803e3d6000fd5b505050506040513d601f19601f82011682018060405250810190610e1a91906111a7565b9050919050565b600033905090565b60008060009054906101000a900473ffffffffffffffffffffffffffffffffffffffff169050816000806101000a81548173ffffffffffffffffffffffffffffffffffffffff021916908373ffffffffffffffffffffffffffffffffffffffff1602179055508173ffffffffffffffffffffffffffffffffffffffff168173ffffffffffffffffffffffffffffffffffffffff167f8be0079c531659141344cd1fd0a4f28419497f9722a3daafe3b4186f6b6457e060405160405180910390a35050565b6000819050919050565b610f0081610eed565b82525050565b6000602082019050610f1b6000830184610ef7565b92915050565b600073ffffffffffffffffffffffffffffffffffffffff82169050919050565b6000819050919050565b6000610f66610f61610f5c84610f21565b610f41565b610f21565b9050919050565b6000610f7882610f4b565b9050919050565b6000610f8a82610f6d565b9050919050565b610f9a81610f7f565b82525050565b6000602082019050610fb56000830184610f91565b92915050565b600080fd5b610fc981610eed565b8114610fd457600080fd5b50565b600081359050610fe681610fc0565b92915050565b6000610ff782610f21565b9050919050565b61100781610fec565b811461101257600080fd5b50565b60008135905061102481610ffe565b92915050565b6000806000806080858703121561104457611043610fbb565b5b600061105287828801610fd7565b945050602061106387828801610fd7565b935050604061107487828801610fd7565b925050606061108587828801611015565b91505092959194509250565b6000602082840312156110a7576110a6610fbb565b5b60006110b584828501610fd7565b91505092915050565b6110c781610fec565b82525050565b60006020820190506110e260008301846110be565b92915050565b6000602082840312156110fe576110fd610fbb565b5b600061110c84828501611015565b91505092915050565b600082825260208201905092915050565b7f4f776e61626c653a2063616c6c6572206973206e6f7420746865206f776e6572600082015250565b600061115c602083611115565b915061116782611126565b602082019050919050565b6000602082019050818103600083015261118b8161114f565b9050919050565b6000815190506111a181610fc0565b92915050565b6000602082840312156111bd576111bc610fbb565b5b60006111cb84828501611192565b91505092915050565b7f596f7520616c7265616479207061696420666f7220746869732063616d70616960008201527f676e2e0000000000000000000000000000000000000000000000000000000000602082015250565b6000611230602383611115565b915061123b826111d4565b604082019050919050565b6000602082019050818103600083015261125f81611223565b9050919050565b7f4e487b7100000000000000000000000000000000000000000000000000000000600052601160045260246000fd5b60006112a082610eed565b91506112ab83610eed565b9250827fffffffffffffffffffffffffffffffffffffffffffffffffffffffffffffffff038211156112e0576112df611266565b5b828201905092915050565b7f54727920746f2062757920666f72206c657373206d6f6e65792e000000000000600082015250565b6000611321601a83611115565b915061132c826112eb565b602082019050919050565b6000602082019050818103600083015261135081611314565b9050919050565b7f596f7572207061796d656e74206d75737420626520657175616c206f7220686960008201527f67686572207468616e2031302070546f6b656e00000000000000000000000000602082015250565b60006113b3603383611115565b91506113be82611357565b604082019050919050565b600060208201905081810360008301526113e2816113a6565b9050919050565b7f596f757220616c6c6f636174696f6e206973206c6f7765722e00000000000000600082015250565b600061141f601983611115565b915061142a826113e9565b602082019050919050565b6000602082019050818103600083015261144e81611412565b9050919050565b600060608201905061146a60008301866110be565b61147760208301856110be565b6114846040830184610ef7565b949350505050565b60008115159050919050565b6114a18161148c565b81146114ac57600080fd5b50565b6000815190506114be81611498565b92915050565b6000602082840312156114da576114d9610fbb565b5b60006114e8848285016114af565b91505092915050565b600060408201905061150660008301856110be565b6115136020830184610ef7565b9392505050565b600061152582610eed565b915061153083610eed565b92508282101561154357611542611266565b5b828203905092915050565b7f4e487b7100000000000000000000000000000000000000000000000000000000600052603260045260246000fd5b600061158882610eed565b91507fffffffffffffffffffffffffffffffffffffffffffffffffffffffffffffffff8214156115bb576115ba611266565b5b600182019050919050565b7f4f776e61626c653a206e6577206f776e657220697320746865207a65726f206160008201527f6464726573730000000000000000000000000000000000000000000000000000602082015250565b6000611622602683611115565b915061162d826115c6565b604082019050919050565b6000602082019050818103600083015261165181611615565b905091905056fea26469706673582212206ece9ec987fb2ae16a0e8e6a18a3f1b6cdb1399731c75375d07ba67d11b399d964736f6c634300080a0033",
  "immutableReferences": {},
  "source": "// SPDX-License-Identifier: UNLICENSED\npragma solidity ^0.8.0;\n\n//@title Funding a promising project\n//@author Mikolaj Dudzic\n//@notice Contract was not build for commercial use.\n\n\nimport \"@openzeppelin/contracts/access/Ownable.sol\";\nimport \"@openzeppelin/contracts/token/ERC20/IERC20.sol\";\n\n\ncontract LaunchpadDeal is Ownable {\n\n  //@notice State variables\n\n  //@notice array of investors\n  address[] public investors;\n  //@notice max limit of investors contribution\n  uint256 maxPool;\n  //@notice max contribution for 1 investor\n  uint256 maxPoolPerUser;\n  //@notice min contribution for 1 investor\n  uint256 minPoolPerUser;\n  //@notice current number of raised money\n  uint256 currentPool;\n  //@notice erc20 token which will be used for payments\n  IERC20 public paymentToken;\n\n  \n  struct investorStruct {\n    //@notice Users overall contribution.\n    uint pool;\n    bool isPaidFull;\n  }\n\n\n  // Mappings\n\n  mapping(address => investorStruct) private investorStructMapping;\n\n  \n  // Events\n  \n  event GetAnInvestor(address _investor, uint256 _amount);\n  \n  event UserPaid(address _investor, uint256 _amount);\n\n  event OwnerReceivedFunds(address _owner, address _from, uint256 _amount);\n\n  \n  //@notice Modifiers\n\n  //@notice modifier checks if user is aligible to pay for deal\n  //@param the amount that user wants to pay\n  modifier UserCanPay(uint256 _amount) {\n    // Check whether user has the payment token in his wallet in the first place.\n    require(paymentToken.balanceOf(msg.sender) > 0);\n    // Checks whether user already paid for this campaign. \n    require(investorStructMapping[msg.sender].isPaidFull != true, \"You already paid for this campaign.\");\n    // Checks whether the amount fits in max limit.\n    require(currentPool + _amount <= maxPool, \"Try to buy for less money.\");\n    // Checks if the user provided enough contribution.\n    require(_amount >= minPoolPerUser, \"Your payment must be equal or higher than 10 pToken\");\n    // Makes sure user cant buy more than max limit.\n    require(_amount <= maxPoolPerUser, \"Your allocation is lower.\");\n    _;\n  }\n  \n  //@notice modifier check if caller of the function is an investor\n  modifier isAnInvestor() {\n    for (uint i = 0; i < investors.length; i++) {\n      if (investors[i] == msg.sender) {\n        _;\n      }\n    }\n    revert(\"You are not an investor!\");\n  }\n\n\n  // Functions\n\n  //@notice Owner of the contract can set deal parameters after deploying the contract\n  function setParameters(uint256 _maxPool, uint256 _maxPoolPerUser, uint256 _minPoolPerUser, address _pToken) external onlyOwner {\n    maxPool = _maxPool;\n    maxPoolPerUser = _maxPoolPerUser;\n    minPoolPerUser = _minPoolPerUser;\n    paymentToken = IERC20(_pToken);\n    currentPool = 0;\n  }\n  \n  //@notice transfers payment token from users address to the owners one. \n  function payForDeal(uint256 _amount) public UserCanPay(_amount) {\n    address investor = msg.sender;\n\n    paymentToken.transferFrom(investor, Ownable.owner(), _amount);\n    emit UserPaid(investor, _amount);\n\n    //@notice Contract adds user to the \"investors\" array\n    investors.push(investor);\n    currentPool += _amount;\n    uint256 index = investors.length - 1;\n    investorStructMapping[investors[index]].pool = _amount;\n    if (_amount == maxPoolPerUser) {\n      investorStructMapping[investors[index]].isPaidFull = true;\n    }\n  }\n\n  //@notice returns a list of investors addresses and its pools emitting the GetAnInvestor event \n  function getInvestors() external onlyOwner {\n    for (uint i = 0; i < investors.length; i++) {\n      emit GetAnInvestor(investors[i], investorStructMapping[investors[i]].pool);\n    }\n  }\n\n  //@notice returns a current status of investors contribution\n  function getCurrentPool() external view returns(uint) {\n    return currentPool;\n  }\n\n  //@notice returns a balance of some ERC20 token on provided address\n  function getBalance(address _address) public view returns(uint) {\n    return paymentToken.balanceOf(_address);\n  }\n  \n  //@notice this function is for test purposes only.\n  function getNum(uint256 _amount) external view UserCanPay(_amount) returns(uint) {\n    return _amount;\n  }\n}",
  "sourcePath": "/Users/mikolajdudzic/Documents/github/blockchain-developer-bootcamp-final-project/contracts/LaunchpadDeal.sol",
  "compiler": {
    "name": "solc",
    "version": "0.8.10+commit.fc410830.Emscripten.clang"
  },
  "schemaVersion": "3.4.3",
  "updatedAt": "2021-11-30T15:16:17.226Z",
  "networkType": "ethereum",
  "devdoc": {
    "kind": "dev",
    "methods": {
      "owner()": {
        "details": "Returns the address of the current owner."
      },
      "renounceOwnership()": {
        "details": "Leaves the contract without owner. It will not be possible to call `onlyOwner` functions anymore. Can only be called by the current owner. NOTE: Renouncing ownership will leave the contract without an owner, thereby removing any functionality that is only available to the owner."
      },
      "transferOwnership(address)": {
        "details": "Transfers ownership of the contract to a new account (`newOwner`). Can only be called by the current owner."
      }
    },
    "version": 1
  },
  "userdoc": {
    "kind": "user",
    "methods": {},
    "version": 1
  }
}