{
  "contractName": "sendToken",
  "abi": [
    {
      "inputs": [],
      "name": "sendPToken",
      "outputs": [],
      "stateMutability": "nonpayable",
      "type": "function"
    }
  ],
  "bytecode": "0x608060405273abec441aca68ce757264c89899ba4820908b801b6000806101000a81548173ffffffffffffffffffffffffffffffffffffffff021916908373ffffffffffffffffffffffffffffffffffffffff16021790555034801561006457600080fd5b5061023d806100746000396000f3fe608060405234801561001057600080fd5b506004361061002b5760003560e01c80633b94f58c14610030575b600080fd5b61003861003a565b005b60008054906101000a900473ffffffffffffffffffffffffffffffffffffffff1673ffffffffffffffffffffffffffffffffffffffff1663a9059cbb33680821ab0d44149800006040518363ffffffff1660e01b815260040161009e929190610174565b6020604051808303816000875af11580156100bd573d6000803e3d6000fd5b505050506040513d601f19601f820116820180604052508101906100e191906101da565b50565b600073ffffffffffffffffffffffffffffffffffffffff82169050919050565b600061010f826100e4565b9050919050565b61011f81610104565b82525050565b6000819050919050565b6000819050919050565b6000819050919050565b600061015e61015961015484610125565b610139565b61012f565b9050919050565b61016e81610143565b82525050565b60006040820190506101896000830185610116565b6101966020830184610165565b9392505050565b600080fd5b60008115159050919050565b6101b7816101a2565b81146101c257600080fd5b50565b6000815190506101d4816101ae565b92915050565b6000602082840312156101f0576101ef61019d565b5b60006101fe848285016101c5565b9150509291505056fea2646970667358221220a0831185428e52c2b2f40c40b3d8cd7621da47aca57d86bdaeae3566bab0d68f64736f6c634300080a0033",
  "immutableReferences": {},
  "source": "// SPDX-License-Identifier: UNLICENSED\npragma solidity ^0.8.0;\n\nimport \"@openzeppelin/contracts/token/ERC20/IERC20.sol\";\n\ncontract sendToken {\n\n\tIERC20 pToken = IERC20(0xabeC441aCa68cE757264c89899Ba4820908b801b);\n\n\tfunction sendPToken() public {\n\t\tpToken.transfer(msg.sender, 150000000000000000000);\n\t}\n}",
  "sourcePath": "/Users/mikolajdudzic/Documents/github/blockchain-developer-bootcamp-final-project/contracts/sendToken.sol",
  "compiler": {
    "name": "solc",
    "version": "0.8.10+commit.fc410830.Emscripten.clang"
  },
  "schemaVersion": "3.4.3",
  "updatedAt": "2021-11-30T15:02:54.252Z",
  "devdoc": {
    "kind": "dev",
    "methods": {},
    "version": 1
  },
  "userdoc": {
    "kind": "user",
    "methods": {},
    "version": 1
  }
}